{
  "contractName": "ERC721",
  "abi": [
    {
      "inputs": [],
      "stateMutability": "nonpayable",
      "type": "constructor"
    },
    {
      "anonymous": false,
      "inputs": [
        {
          "indexed": true,
          "internalType": "address",
          "name": "_owner",
          "type": "address"
        },
        {
          "indexed": true,
          "internalType": "address",
          "name": "_approved",
          "type": "address"
        },
        {
          "indexed": true,
          "internalType": "uint256",
          "name": "_tokenId",
          "type": "uint256"
        }
      ],
      "name": "Approval",
      "type": "event"
    },
    {
      "anonymous": false,
      "inputs": [
        {
          "indexed": true,
          "internalType": "address",
          "name": "_from",
          "type": "address"
        },
        {
          "indexed": true,
          "internalType": "address",
          "name": "_to",
          "type": "address"
        },
        {
          "indexed": true,
          "internalType": "uint256",
          "name": "_tokenId",
          "type": "uint256"
        }
      ],
      "name": "Transfer",
      "type": "event"
    },
    {
      "inputs": [
        {
          "internalType": "bytes4",
          "name": "interfaceId",
          "type": "bytes4"
        }
      ],
      "name": "supportsInterface",
      "outputs": [
        {
          "internalType": "bool",
          "name": "",
          "type": "bool"
        }
      ],
      "stateMutability": "view",
      "type": "function"
    },
    {
      "inputs": [
        {
          "internalType": "address",
          "name": "_owner",
          "type": "address"
        }
      ],
      "name": "balanceOf",
      "outputs": [
        {
          "internalType": "uint256",
          "name": "",
          "type": "uint256"
        }
      ],
      "stateMutability": "view",
      "type": "function"
    },
    {
      "inputs": [
        {
          "internalType": "uint256",
          "name": "_tokenId",
          "type": "uint256"
        }
      ],
      "name": "ownerOf",
      "outputs": [
        {
          "internalType": "address",
          "name": "",
          "type": "address"
        }
      ],
      "stateMutability": "view",
      "type": "function"
    },
    {
      "inputs": [
        {
          "internalType": "address",
          "name": "_from",
          "type": "address"
        },
        {
          "internalType": "address",
          "name": "_to",
          "type": "address"
        },
        {
          "internalType": "uint256",
          "name": "_tokenId",
          "type": "uint256"
        }
      ],
      "name": "transferFrom",
      "outputs": [],
      "stateMutability": "nonpayable",
      "type": "function"
    },
    {
      "inputs": [
        {
          "internalType": "address",
          "name": "_to",
          "type": "address"
        },
        {
          "internalType": "uint256",
          "name": "tokenId",
          "type": "uint256"
        }
      ],
      "name": "approve",
      "outputs": [],
      "stateMutability": "nonpayable",
      "type": "function"
    }
  ],
  "bytecode": "0x60806040523480156200001157600080fd5b50620000437f01ffc9a7a5cef8baa21ed3c5c0d7e23accb804b619e9333b597f47a0d84076e2620000be60201b60201c565b620000b87f22c82707ba960a14c7592ffb6b8cfaa073fed0048a84cc7fa41f6b5bd8e7f2e47f3a6eb71757dfc6e784c1459d26270140c2c147d95ca985c80026fc5301c3eca17f8a7e378434598edc36d108689a030cbc9d7d465de4f74c71bae1028eed6a881b1818620000be60201b60201c565b62000218565b63ffffffff60e01b817bffffffffffffffffffffffffffffffffffffffffffffffffffffffff19160362000129576040517f08c379a00000000000000000000000000000000000000000000000000000000081526004016200012090620001f6565b60405180910390fd5b6001600080837bffffffffffffffffffffffffffffffffffffffffffffffffffffffff19167bffffffffffffffffffffffffffffffffffffffffffffffffffffffff1916815260200190815260200160002060006101000a81548160ff02191690831515021790555050565b600082825260208201905092915050565b7f496e76616c696420696e74657266616365207265717565737400000000000000600082015250565b6000620001de60198362000195565b9150620001eb82620001a6565b602082019050919050565b600060208201905081810360008301526200021181620001cf565b9050919050565b61108080620002286000396000f3fe608060405234801561001057600080fd5b50600436106100575760003560e01c806301ffc9a71461005c578063095ea7b31461008c57806323b872dd146100a85780636352211e146100c457806370a08231146100f4575b600080fd5b6100766004803603810190610071919061094c565b610124565b6040516100839190610994565b60405180910390f35b6100a660048036038101906100a19190610a43565b61018b565b005b6100c260048036038101906100bd9190610a83565b610326565b005b6100de60048036038101906100d99190610ad6565b610349565b6040516100eb9190610b12565b60405180910390f35b61010e60048036038101906101099190610b2d565b6103fa565b60405161011b9190610b69565b60405180910390f35b6000806000837bffffffffffffffffffffffffffffffffffffffffffffffffffffffff19167bffffffffffffffffffffffffffffffffffffffffffffffffffffffff1916815260200190815260200160002060009054906101000a900460ff169050919050565b600061019682610349565b90508073ffffffffffffffffffffffffffffffffffffffff168373ffffffffffffffffffffffffffffffffffffffff1603610206576040517f08c379a00000000000000000000000000000000000000000000000000000000081526004016101fd90610c07565b60405180910390fd5b8073ffffffffffffffffffffffffffffffffffffffff163373ffffffffffffffffffffffffffffffffffffffff1614610274576040517f08c379a000000000000000000000000000000000000000000000000000000000815260040161026b90610c99565b60405180910390fd5b826003600084815260200190815260200160002060006101000a81548173ffffffffffffffffffffffffffffffffffffffff021916908373ffffffffffffffffffffffffffffffffffffffff160217905550818373ffffffffffffffffffffffffffffffffffffffff168273ffffffffffffffffffffffffffffffffffffffff167f8c5be1e5ebec7d5bd14f71427d1e84f3dd0314c0f7b2291e5b200ac8c7c3b92560405160405180910390a4505050565b61033033826104b8565b61033957600080fd5b610344838383610547565b505050565b6000806001600084815260200190815260200160002060009054906101000a900473ffffffffffffffffffffffffffffffffffffffff169050600073ffffffffffffffffffffffffffffffffffffffff168173ffffffffffffffffffffffffffffffffffffffff16036103f1576040517f08c379a00000000000000000000000000000000000000000000000000000000081526004016103e890610d2b565b60405180910390fd5b80915050919050565b60008073ffffffffffffffffffffffffffffffffffffffff168273ffffffffffffffffffffffffffffffffffffffff160361046a576040517f08c379a000000000000000000000000000000000000000000000000000000000815260040161046190610d2b565b60405180910390fd5b6104b1600260008473ffffffffffffffffffffffffffffffffffffffff1673ffffffffffffffffffffffffffffffffffffffff16815260200190815260200160002061076c565b9050919050565b60006104c38261077a565b610502576040517f08c379a00000000000000000000000000000000000000000000000000000000081526004016104f990610d97565b60405180910390fd5b600061050d83610349565b90508073ffffffffffffffffffffffffffffffffffffffff168473ffffffffffffffffffffffffffffffffffffffff161491505092915050565b600073ffffffffffffffffffffffffffffffffffffffff168273ffffffffffffffffffffffffffffffffffffffff16036105b6576040517f08c379a00000000000000000000000000000000000000000000000000000000081526004016105ad90610e29565b60405180910390fd5b8273ffffffffffffffffffffffffffffffffffffffff166105d682610349565b73ffffffffffffffffffffffffffffffffffffffff161461062c576040517f08c379a000000000000000000000000000000000000000000000000000000000815260040161062390610ebb565b60405180910390fd5b610673600260008573ffffffffffffffffffffffffffffffffffffffff1673ffffffffffffffffffffffffffffffffffffffff1681526020019081526020016000206107ec565b6106ba600260008473ffffffffffffffffffffffffffffffffffffffff1673ffffffffffffffffffffffffffffffffffffffff16815260200190815260200160002061080f565b816001600083815260200190815260200160002060006101000a81548173ffffffffffffffffffffffffffffffffffffffff021916908373ffffffffffffffffffffffffffffffffffffffff160217905550808273ffffffffffffffffffffffffffffffffffffffff168473ffffffffffffffffffffffffffffffffffffffff167fddf252ad1be2c89b69c2b068fc378daa952ba7f163c4a11628f55a4df523b3ef60405160405180910390a4505050565b600081600001549050919050565b6000806001600084815260200190815260200160002060009054906101000a900473ffffffffffffffffffffffffffffffffffffffff169050600073ffffffffffffffffffffffffffffffffffffffff168173ffffffffffffffffffffffffffffffffffffffff161415915050919050565b6108046001826000015461083290919063ffffffff16565b816000018190555050565b6108276001826000015461089190919063ffffffff16565b816000018190555050565b600082821115610877576040517f08c379a000000000000000000000000000000000000000000000000000000000815260040161086e90610f27565b60405180910390fd5b600082846108859190610f76565b90508091505092915050565b60008082846108a09190610faa565b9050838110156108e5576040517f08c379a00000000000000000000000000000000000000000000000000000000081526004016108dc9061102a565b60405180910390fd5b8091505092915050565b600080fd5b60007fffffffff0000000000000000000000000000000000000000000000000000000082169050919050565b610929816108f4565b811461093457600080fd5b50565b60008135905061094681610920565b92915050565b600060208284031215610962576109616108ef565b5b600061097084828501610937565b91505092915050565b60008115159050919050565b61098e81610979565b82525050565b60006020820190506109a96000830184610985565b92915050565b600073ffffffffffffffffffffffffffffffffffffffff82169050919050565b60006109da826109af565b9050919050565b6109ea816109cf565b81146109f557600080fd5b50565b600081359050610a07816109e1565b92915050565b6000819050919050565b610a2081610a0d565b8114610a2b57600080fd5b50565b600081359050610a3d81610a17565b92915050565b60008060408385031215610a5a57610a596108ef565b5b6000610a68858286016109f8565b9250506020610a7985828601610a2e565b9150509250929050565b600080600060608486031215610a9c57610a9b6108ef565b5b6000610aaa868287016109f8565b9350506020610abb868287016109f8565b9250506040610acc86828701610a2e565b9150509250925092565b600060208284031215610aec57610aeb6108ef565b5b6000610afa84828501610a2e565b91505092915050565b610b0c816109cf565b82525050565b6000602082019050610b276000830184610b03565b92915050565b600060208284031215610b4357610b426108ef565b5b6000610b51848285016109f8565b91505092915050565b610b6381610a0d565b82525050565b6000602082019050610b7e6000830184610b5a565b92915050565b600082825260208201905092915050565b7f4572726f72202d20617070726f76616c20746f2063757272656e74206f776e6560008201527f7200000000000000000000000000000000000000000000000000000000000000602082015250565b6000610bf1602183610b84565b9150610bfc82610b95565b604082019050919050565b60006020820190508181036000830152610c2081610be4565b9050919050565b7f43757272656e742063616c6c6572206973206e6f7420746865206f776e65722060008201527f6f662074686520746f6b656e0000000000000000000000000000000000000000602082015250565b6000610c83602c83610b84565b9150610c8e82610c27565b604082019050919050565b60006020820190508181036000830152610cb281610c76565b9050919050565b7f6f776e657220717565727920666f72206e6f6e2d6578697374656e7420746f6b60008201527f656e000000000000000000000000000000000000000000000000000000000000602082015250565b6000610d15602283610b84565b9150610d2082610cb9565b604082019050919050565b60006020820190508181036000830152610d4481610d08565b9050919050565b7f746f6b656e20646f6573206e6f74206578697374000000000000000000000000600082015250565b6000610d81601483610b84565b9150610d8c82610d4b565b602082019050919050565b60006020820190508181036000830152610db081610d74565b9050919050565b7f4572726f723a20455243373231205472616e7366657220746f20746865207a6560008201527f726f206164647265737300000000000000000000000000000000000000000000602082015250565b6000610e13602a83610b84565b9150610e1e82610db7565b604082019050919050565b60006020820190508181036000830152610e4281610e06565b9050919050565b7f547279696e6720746f207472616e73666572206120746f6b656e20746865206160008201527f64647265737320646f6573206e6f74206f776e21000000000000000000000000602082015250565b6000610ea5603483610b84565b9150610eb082610e49565b604082019050919050565b60006020820190508181036000830152610ed481610e98565b9050919050565b7f536166654d6174683a207375627472616374696f6e206f766572666c6f770000600082015250565b6000610f11601e83610b84565b9150610f1c82610edb565b602082019050919050565b60006020820190508181036000830152610f4081610f04565b9050919050565b7f4e487b7100000000000000000000000000000000000000000000000000000000600052601160045260246000fd5b6000610f8182610a0d565b9150610f8c83610a0d565b9250828203905081811115610fa457610fa3610f47565b5b92915050565b6000610fb582610a0d565b9150610fc083610a0d565b9250828201905080821115610fd857610fd7610f47565b5b92915050565b7f536166654d6174683a206164646974696f6e206f766572666c6f770000000000600082015250565b6000611014601b83610b84565b915061101f82610fde565b602082019050919050565b6000602082019050818103600083015261104381611007565b905091905056fea264697066735822122039764f09cf8986fe576899a35707c1775be7a36d81cb3a90ac72bb0cf44989ef64736f6c63430008100033",
  "immutableReferences": {},
  "source": "// SPDX-License-Identifier: MIT\npragma solidity ^0.8.0;\n\nimport \"./ERC165.sol\";\nimport \"./interfaces/IERC721.sol\";\nimport \"./libraries/Counters.sol\";\n\ncontract ERC721 is ERC165, IERC721 {\n  using SafeMath for uint256;\n  using Counters for Counters.Counter;\n  mapping(uint256 => address) private _tokenOwner;\n  mapping(address => Counters.Counter) private _OwnedTokensCount;\n  mapping(uint256 => address) private _tokenApprovals;\n\n  constructor() {\n    _registerInterface(\n      bytes4(\n        keccak256(\"balanceOf(bytes4)\") ^\n          keccak256(\"ownerOf(bytes4)\") ^\n          keccak256(\"transferFrom(bytes4)\")\n      )\n    );\n  }\n\n  function balanceOf(address _owner) public view override returns (uint256) {\n    require(_owner != address(0), \"owner query for non-existent token\");\n    return _OwnedTokensCount[_owner].current();\n  }\n\n  function ownerOf(uint256 _tokenId) public view override returns (address) {\n    address owner = _tokenOwner[_tokenId];\n    require(owner != address(0), \"owner query for non-existent token\");\n    return owner;\n  }\n\n  function _exists(uint256 tokenId) internal view returns (bool) {\n    address owner = _tokenOwner[tokenId];\n    return owner != address(0);\n  }\n\n  function _mint(address to, uint256 tokenId) internal virtual {\n    require(to != address(0), \"ERC721: minting to the zero address\");\n    require(!_exists(tokenId), \"ERC721: token already minted\");\n    _tokenOwner[tokenId] = to;\n    _OwnedTokensCount[to].increment();\n\n    emit Transfer(address(0), to, tokenId);\n  }\n\n  function _transferFrom(\n    address _from,\n    address _to,\n    uint256 _tokenId\n  ) internal {\n    require(_to != address(0), \"Error: ERC721 Transfer to the zero address\");\n    require(\n      ownerOf(_tokenId) == _from,\n      \"Trying to transfer a token the address does not own!\"\n    );\n    _OwnedTokensCount[_from].decrement();\n    _OwnedTokensCount[_to].increment();\n    _tokenOwner[_tokenId] = _to;\n\n    emit Transfer(_from, _to, _tokenId);\n  }\n\n  function transferFrom(\n    address _from,\n    address _to,\n    uint256 _tokenId\n  ) public override {\n    require(isApprovedOrOwner(msg.sender, _tokenId));\n    _transferFrom(_from, _to, _tokenId);\n  }\n\n  function approve(address _to, uint256 tokenId) public {\n    address owner = ownerOf(tokenId);\n    require(_to != owner, \"Error - approval to current owner\");\n    require(\n      msg.sender == owner,\n      \"Current caller is not the owner of the token\"\n    );\n    _tokenApprovals[tokenId] = _to;\n    emit Approval(owner, _to, tokenId);\n  }\n\n  function isApprovedOrOwner(address spender, uint256 tokenId)\n    internal\n    view\n    returns (bool)\n  {\n    require(_exists(tokenId), \"token does not exist\");\n    address owner = ownerOf(tokenId);\n    return (spender == owner); /*|| getApproved(tokenId) == spender*/\n  }\n}\n",
  "sourcePath": "/Users/1004752/IdeaProjects/nft-marketplace/src/contracts/ERC721.sol",
  "compiler": {
    "name": "solc",
    "version": "0.8.16+commit.07a7930e.Emscripten.clang"
  },
  "schemaVersion": "3.4.9",
  "updatedAt": "2022-08-25T08:06:58.509Z",
  "devdoc": {
    "kind": "dev",
    "methods": {},
    "version": 1
  },
  "userdoc": {
    "kind": "user",
    "methods": {},
    "version": 1
  }
}