{
  "contractName": "nftExchange",
  "abi": [
    {
      "inputs": [],
      "stateMutability": "nonpayable",
      "type": "constructor"
    },
    {
      "anonymous": false,
      "inputs": [
        {
          "indexed": true,
          "internalType": "address",
          "name": "owner",
          "type": "address"
        },
        {
          "indexed": true,
          "internalType": "address",
          "name": "approved",
          "type": "address"
        },
        {
          "indexed": true,
          "internalType": "uint256",
          "name": "tokenId",
          "type": "uint256"
        }
      ],
      "name": "Approval",
      "type": "event"
    },
    {
      "anonymous": false,
      "inputs": [
        {
          "indexed": true,
          "internalType": "address",
          "name": "owner",
          "type": "address"
        },
        {
          "indexed": true,
          "internalType": "address",
          "name": "operator",
          "type": "address"
        },
        {
          "indexed": false,
          "internalType": "bool",
          "name": "approved",
          "type": "bool"
        }
      ],
      "name": "ApprovalForAll",
      "type": "event"
    },
    {
      "anonymous": false,
      "inputs": [
        {
          "indexed": true,
          "internalType": "address",
          "name": "previousOwner",
          "type": "address"
        },
        {
          "indexed": true,
          "internalType": "address",
          "name": "newOwner",
          "type": "address"
        }
      ],
      "name": "OwnershipTransferred",
      "type": "event"
    },
    {
      "anonymous": false,
      "inputs": [
        {
          "indexed": true,
          "internalType": "address",
          "name": "from",
          "type": "address"
        },
        {
          "indexed": true,
          "internalType": "address",
          "name": "to",
          "type": "address"
        },
        {
          "indexed": true,
          "internalType": "uint256",
          "name": "tokenId",
          "type": "uint256"
        }
      ],
      "name": "Transfer",
      "type": "event"
    },
    {
      "inputs": [
        {
          "internalType": "address",
          "name": "to",
          "type": "address"
        },
        {
          "internalType": "uint256",
          "name": "tokenId",
          "type": "uint256"
        }
      ],
      "name": "approve",
      "outputs": [],
      "stateMutability": "nonpayable",
      "type": "function"
    },
    {
      "inputs": [
        {
          "internalType": "address",
          "name": "owner",
          "type": "address"
        }
      ],
      "name": "balanceOf",
      "outputs": [
        {
          "internalType": "uint256",
          "name": "",
          "type": "uint256"
        }
      ],
      "stateMutability": "view",
      "type": "function"
    },
    {
      "inputs": [
        {
          "internalType": "uint256",
          "name": "tokenId",
          "type": "uint256"
        }
      ],
      "name": "getApproved",
      "outputs": [
        {
          "internalType": "address",
          "name": "",
          "type": "address"
        }
      ],
      "stateMutability": "view",
      "type": "function"
    },
    {
      "inputs": [
        {
          "internalType": "address",
          "name": "owner",
          "type": "address"
        },
        {
          "internalType": "address",
          "name": "operator",
          "type": "address"
        }
      ],
      "name": "isApprovedForAll",
      "outputs": [
        {
          "internalType": "bool",
          "name": "",
          "type": "bool"
        }
      ],
      "stateMutability": "view",
      "type": "function"
    },
    {
      "inputs": [],
      "name": "name",
      "outputs": [
        {
          "internalType": "string",
          "name": "",
          "type": "string"
        }
      ],
      "stateMutability": "view",
      "type": "function"
    },
    {
      "inputs": [
        {
          "internalType": "uint256",
          "name": "",
          "type": "uint256"
        }
      ],
      "name": "nftTokenPrices",
      "outputs": [
        {
          "internalType": "uint256",
          "name": "",
          "type": "uint256"
        }
      ],
      "stateMutability": "view",
      "type": "function"
    },
    {
      "inputs": [
        {
          "internalType": "uint256",
          "name": "",
          "type": "uint256"
        }
      ],
      "name": "onSaleNftTokenArray",
      "outputs": [
        {
          "internalType": "uint256",
          "name": "",
          "type": "uint256"
        }
      ],
      "stateMutability": "view",
      "type": "function"
    },
    {
      "inputs": [],
      "name": "owner",
      "outputs": [
        {
          "internalType": "address",
          "name": "",
          "type": "address"
        }
      ],
      "stateMutability": "view",
      "type": "function"
    },
    {
      "inputs": [
        {
          "internalType": "uint256",
          "name": "tokenId",
          "type": "uint256"
        }
      ],
      "name": "ownerOf",
      "outputs": [
        {
          "internalType": "address",
          "name": "",
          "type": "address"
        }
      ],
      "stateMutability": "view",
      "type": "function"
    },
    {
      "inputs": [],
      "name": "renounceOwnership",
      "outputs": [],
      "stateMutability": "nonpayable",
      "type": "function"
    },
    {
      "inputs": [
        {
          "internalType": "address",
          "name": "from",
          "type": "address"
        },
        {
          "internalType": "address",
          "name": "to",
          "type": "address"
        },
        {
          "internalType": "uint256",
          "name": "tokenId",
          "type": "uint256"
        }
      ],
      "name": "safeTransferFrom",
      "outputs": [],
      "stateMutability": "nonpayable",
      "type": "function"
    },
    {
      "inputs": [
        {
          "internalType": "address",
          "name": "from",
          "type": "address"
        },
        {
          "internalType": "address",
          "name": "to",
          "type": "address"
        },
        {
          "internalType": "uint256",
          "name": "tokenId",
          "type": "uint256"
        },
        {
          "internalType": "bytes",
          "name": "_data",
          "type": "bytes"
        }
      ],
      "name": "safeTransferFrom",
      "outputs": [],
      "stateMutability": "nonpayable",
      "type": "function"
    },
    {
      "inputs": [
        {
          "internalType": "address",
          "name": "operator",
          "type": "address"
        },
        {
          "internalType": "bool",
          "name": "approved",
          "type": "bool"
        }
      ],
      "name": "setApprovalForAll",
      "outputs": [],
      "stateMutability": "nonpayable",
      "type": "function"
    },
    {
      "inputs": [],
      "name": "symbol",
      "outputs": [
        {
          "internalType": "string",
          "name": "",
          "type": "string"
        }
      ],
      "stateMutability": "view",
      "type": "function"
    },
    {
      "inputs": [
        {
          "internalType": "uint256",
          "name": "index",
          "type": "uint256"
        }
      ],
      "name": "tokenByIndex",
      "outputs": [
        {
          "internalType": "uint256",
          "name": "",
          "type": "uint256"
        }
      ],
      "stateMutability": "view",
      "type": "function"
    },
    {
      "inputs": [
        {
          "internalType": "address",
          "name": "owner",
          "type": "address"
        },
        {
          "internalType": "uint256",
          "name": "index",
          "type": "uint256"
        }
      ],
      "name": "tokenOfOwnerByIndex",
      "outputs": [
        {
          "internalType": "uint256",
          "name": "",
          "type": "uint256"
        }
      ],
      "stateMutability": "view",
      "type": "function"
    },
    {
      "inputs": [],
      "name": "totalSupply",
      "outputs": [
        {
          "internalType": "uint256",
          "name": "",
          "type": "uint256"
        }
      ],
      "stateMutability": "view",
      "type": "function"
    },
    {
      "inputs": [
        {
          "internalType": "address",
          "name": "from",
          "type": "address"
        },
        {
          "internalType": "address",
          "name": "to",
          "type": "address"
        },
        {
          "internalType": "uint256",
          "name": "tokenId",
          "type": "uint256"
        }
      ],
      "name": "transferFrom",
      "outputs": [],
      "stateMutability": "nonpayable",
      "type": "function"
    },
    {
      "inputs": [
        {
          "internalType": "address",
          "name": "newOwner",
          "type": "address"
        }
      ],
      "name": "transferOwnership",
      "outputs": [],
      "stateMutability": "nonpayable",
      "type": "function"
    },
    {
      "inputs": [
        {
          "internalType": "bytes4",
          "name": "interfaceId",
          "type": "bytes4"
        }
      ],
      "name": "supportsInterface",
      "outputs": [
        {
          "internalType": "bool",
          "name": "",
          "type": "bool"
        }
      ],
      "stateMutability": "view",
      "type": "function"
    },
    {
      "inputs": [
        {
          "internalType": "uint256",
          "name": "tokenId",
          "type": "uint256"
        }
      ],
      "name": "tokenURI",
      "outputs": [
        {
          "internalType": "string",
          "name": "",
          "type": "string"
        }
      ],
      "stateMutability": "view",
      "type": "function"
    },
    {
      "inputs": [
        {
          "internalType": "address",
          "name": "recipient",
          "type": "address"
        },
        {
          "internalType": "string",
          "name": "tokenURI",
          "type": "string"
        }
      ],
      "name": "mintNFT",
      "outputs": [
        {
          "internalType": "uint256",
          "name": "",
          "type": "uint256"
        }
      ],
      "stateMutability": "nonpayable",
      "type": "function"
    },
    {
      "inputs": [
        {
          "internalType": "address",
          "name": "owner",
          "type": "address"
        }
      ],
      "name": "listUserNFTs",
      "outputs": [
        {
          "internalType": "uint256[]",
          "name": "",
          "type": "uint256[]"
        }
      ],
      "stateMutability": "view",
      "type": "function"
    },
    {
      "inputs": [
        {
          "internalType": "address",
          "name": "_nftTokenOwner",
          "type": "address"
        }
      ],
      "name": "getNftTokens",
      "outputs": [
        {
          "components": [
            {
              "internalType": "uint256",
              "name": "nftTokenId",
              "type": "uint256"
            },
            {
              "internalType": "string",
              "name": "nftTokenURI",
              "type": "string"
            }
          ],
          "internalType": "struct nftExchange.NftTokenData[]",
          "name": "",
          "type": "tuple[]"
        }
      ],
      "stateMutability": "view",
      "type": "function"
    },
    {
      "inputs": [
        {
          "internalType": "uint256",
          "name": "_tokenId",
          "type": "uint256"
        },
        {
          "internalType": "uint256",
          "name": "_price",
          "type": "uint256"
        }
      ],
      "name": "addToMarket",
      "outputs": [],
      "stateMutability": "nonpayable",
      "type": "function"
    },
    {
      "inputs": [],
      "name": "getMarketList",
      "outputs": [
        {
          "components": [
            {
              "internalType": "uint256",
              "name": "nftTokenId",
              "type": "uint256"
            },
            {
              "internalType": "string",
              "name": "nftTokenURI",
              "type": "string"
            }
          ],
          "internalType": "struct nftExchange.NftTokenData[]",
          "name": "",
          "type": "tuple[]"
        }
      ],
      "stateMutability": "view",
      "type": "function"
    },
    {
      "inputs": [],
      "name": "getSaleNftToken",
      "outputs": [
        {
          "internalType": "uint256[]",
          "name": "",
          "type": "uint256[]"
        }
      ],
      "stateMutability": "view",
      "type": "function"
    },
    {
      "inputs": [
        {
          "internalType": "uint256",
          "name": "_tokenId",
          "type": "uint256"
        }
      ],
      "name": "getNftTokenPrice",
      "outputs": [
        {
          "internalType": "uint256",
          "name": "",
          "type": "uint256"
        }
      ],
      "stateMutability": "view",
      "type": "function"
    },
    {
      "inputs": [
        {
          "internalType": "uint256",
          "name": "_tokenId",
          "type": "uint256"
        }
      ],
      "name": "buyNft",
      "outputs": [],
      "stateMutability": "payable",
      "type": "function"
    },
    {
      "inputs": [
        {
          "internalType": "uint256",
          "name": "_tokenId",
          "type": "uint256"
        }
      ],
      "name": "burn",
      "outputs": [],
      "stateMutability": "nonpayable",
      "type": "function"
    }
  ],
  "bytecode": "0x60806040523480156200001157600080fd5b506040518060400160405280600781526020017f796f6f6e4e4654000000000000000000000000000000000000000000000000008152506040518060400160405280600481526020017f594e46540000000000000000000000000000000000000000000000000000000081525081600090816200008f919062000412565b508060019081620000a1919062000412565b505050620000c4620000b8620000ca60201b60201c565b620000d260201b60201c565b620004f9565b600033905090565b6000600760009054906101000a900473ffffffffffffffffffffffffffffffffffffffff16905081600760006101000a81548173ffffffffffffffffffffffffffffffffffffffff021916908373ffffffffffffffffffffffffffffffffffffffff1602179055508173ffffffffffffffffffffffffffffffffffffffff168173ffffffffffffffffffffffffffffffffffffffff167f8be0079c531659141344cd1fd0a4f28419497f9722a3daafe3b4186f6b6457e060405160405180910390a35050565b600081519050919050565b7f4e487b7100000000000000000000000000000000000000000000000000000000600052604160045260246000fd5b7f4e487b7100000000000000000000000000000000000000000000000000000000600052602260045260246000fd5b600060028204905060018216806200021a57607f821691505b60208210810362000230576200022f620001d2565b5b50919050565b60008190508160005260206000209050919050565b60006020601f8301049050919050565b600082821b905092915050565b6000600883026200029a7fffffffffffffffffffffffffffffffffffffffffffffffffffffffffffffffff826200025b565b620002a686836200025b565b95508019841693508086168417925050509392505050565b6000819050919050565b6000819050919050565b6000620002f3620002ed620002e784620002be565b620002c8565b620002be565b9050919050565b6000819050919050565b6200030f83620002d2565b620003276200031e82620002fa565b84845462000268565b825550505050565b600090565b6200033e6200032f565b6200034b81848462000304565b505050565b5b8181101562000373576200036760008262000334565b60018101905062000351565b5050565b601f821115620003c2576200038c8162000236565b62000397846200024b565b81016020851015620003a7578190505b620003bf620003b6856200024b565b83018262000350565b50505b505050565b600082821c905092915050565b6000620003e760001984600802620003c7565b1980831691505092915050565b6000620004028383620003d4565b9150826002028217905092915050565b6200041d8262000198565b67ffffffffffffffff811115620004395762000438620001a3565b5b62000445825462000201565b6200045282828562000377565b600060209050601f8311600181146200048a576000841562000475578287015190505b620004818582620003f4565b865550620004f1565b601f1984166200049a8662000236565b60005b82811015620004c4578489015182556001820191506020850194506020810190506200049d565b86831015620004e45784890151620004e0601f891682620003d4565b8355505b6001600288020188555050505b505050505050565b614ae780620005096000396000f3fe6080604052600436106101cd5760003560e01c80636352211e116100f757806395d89b4111610095578063e985e9c511610064578063e985e9c5146106c5578063eacabe1414610702578063f257f5481461073f578063f2fde38b1461077c576101cd565b806395d89b411461060b578063a22cb46514610636578063b88d4fde1461065f578063c87b56dd14610688576101cd565b806373e778c5116100d157806373e778c51461053d5780637fb5f7a61461057a5780638da5cb5b146105a3578063912c45cf146105ce576101cd565b80636352211e146104ac57806370a08231146104e9578063715018a614610526576101cd565b806323b872dd1161016f57806342966c681161013e57806342966c68146103de5780634ae23e64146104075780634f6ccce7146104445780635b9907a414610481576101cd565b806323b872dd14610333578063243adbdd1461035c5780632f745c591461037857806342842e0e146103b5576101cd565b8063095ea7b3116101ab578063095ea7b314610277578063173160a9146102a057806318160ddd146102dd5780631efceb9014610308576101cd565b806301ffc9a7146101d257806306fdde031461020f578063081812fc1461023a575b600080fd5b3480156101de57600080fd5b506101f960048036038101906101f49190612e7d565b6107a5565b6040516102069190612ec5565b60405180910390f35b34801561021b57600080fd5b506102246107b7565b6040516102319190612f70565b60405180910390f35b34801561024657600080fd5b50610261600480360381019061025c9190612fc8565b610849565b60405161026e9190613036565b60405180910390f35b34801561028357600080fd5b5061029e6004803603810190610299919061307d565b6108ce565b005b3480156102ac57600080fd5b506102c760048036038101906102c291906130bd565b6109e5565b6040516102d491906131a8565b60405180910390f35b3480156102e957600080fd5b506102f2610a93565b6040516102ff91906131d9565b60405180910390f35b34801561031457600080fd5b5061031d610aa0565b60405161032a91906131a8565b60405180910390f35b34801561033f57600080fd5b5061035a600480360381019061035591906131f4565b610af8565b005b61037660048036038101906103719190612fc8565b610b58565b005b34801561038457600080fd5b5061039f600480360381019061039a919061307d565b610d3b565b6040516103ac91906131d9565b60405180910390f35b3480156103c157600080fd5b506103dc60048036038101906103d791906131f4565b610de0565b005b3480156103ea57600080fd5b5061040560048036038101906104009190612fc8565b610e00565b005b34801561041357600080fd5b5061042e60048036038101906104299190612fc8565b610e91565b60405161043b91906131d9565b60405180910390f35b34801561045057600080fd5b5061046b60048036038101906104669190612fc8565b610ea9565b60405161047891906131d9565b60405180910390f35b34801561048d57600080fd5b50610496610f1a565b6040516104a39190613390565b60405180910390f35b3480156104b857600080fd5b506104d360048036038101906104ce9190612fc8565b611004565b6040516104e09190613036565b60405180910390f35b3480156104f557600080fd5b50610510600480360381019061050b91906130bd565b6110b5565b60405161051d91906131d9565b60405180910390f35b34801561053257600080fd5b5061053b61116c565b005b34801561054957600080fd5b50610564600480360381019061055f9190612fc8565b6111f4565b60405161057191906131d9565b60405180910390f35b34801561058657600080fd5b506105a1600480360381019061059c91906133b2565b611218565b005b3480156105af57600080fd5b506105b86112e4565b6040516105c59190613036565b60405180910390f35b3480156105da57600080fd5b506105f560048036038101906105f09190612fc8565b61130e565b60405161060291906131d9565b60405180910390f35b34801561061757600080fd5b5061062061132b565b60405161062d9190612f70565b60405180910390f35b34801561064257600080fd5b5061065d6004803603810190610658919061341e565b6113bd565b005b34801561066b57600080fd5b5061068660048036038101906106819190613593565b61153d565b005b34801561069457600080fd5b506106af60048036038101906106aa9190612fc8565b61159f565b6040516106bc9190612f70565b60405180910390f35b3480156106d157600080fd5b506106ec60048036038101906106e79190613616565b6115b1565b6040516106f99190612ec5565b60405180910390f35b34801561070e57600080fd5b50610729600480360381019061072491906136f7565b611645565b60405161073691906131d9565b60405180910390f35b34801561074b57600080fd5b50610766600480360381019061076191906130bd565b61167d565b6040516107739190613390565b60405180910390f35b34801561078857600080fd5b506107a3600480360381019061079e91906130bd565b61175d565b005b60006107b082611854565b9050919050565b6060600080546107c690613782565b80601f01602080910402602001604051908101604052809291908181526020018280546107f290613782565b801561083f5780601f106108145761010080835404028352916020019161083f565b820191906000526020600020905b81548152906001019060200180831161082257829003601f168201915b5050505050905090565b6000610854826118ce565b610893576040517f08c379a000000000000000000000000000000000000000000000000000000000815260040161088a90613825565b60405180910390fd5b6004600083815260200190815260200160002060009054906101000a900473ffffffffffffffffffffffffffffffffffffffff169050919050565b60006108d982611004565b90508073ffffffffffffffffffffffffffffffffffffffff168373ffffffffffffffffffffffffffffffffffffffff1603610949576040517f08c379a0000000000000000000000000000000000000000000000000000000008152600401610940906138b7565b60405180910390fd5b8073ffffffffffffffffffffffffffffffffffffffff1661096861193a565b73ffffffffffffffffffffffffffffffffffffffff16148061099757506109968161099161193a565b6115b1565b5b6109d6576040517f08c379a00000000000000000000000000000000000000000000000000000000081526004016109cd90613949565b60405180910390fd5b6109e08383611942565b505050565b606060006109f2836110b5565b905060008167ffffffffffffffff811115610a1057610a0f613468565b5b604051908082528060200260200182016040528015610a3e5781602001602082028036833780820191505090505b50905060005b82811015610a8857610a568582610d3b565b828281518110610a6957610a68613969565b5b6020026020010181815250508080610a80906139c7565b915050610a44565b508092505050919050565b6000600a80549050905090565b6060600e805480602002602001604051908101604052809291908181526020018280548015610aee57602002820191906000526020600020905b815481526020019060010190808311610ada575b5050505050905090565b610b09610b0361193a565b826119fb565b610b48576040517f08c379a0000000000000000000000000000000000000000000000000000000008152600401610b3f90613a81565b60405180910390fd5b610b53838383611ad9565b505050565b6000600d60008381526020019081526020016000205490506000610b7b83611004565b905060008211610bc0576040517f08c379a0000000000000000000000000000000000000000000000000000000008152600401610bb790613aed565b60405180910390fd5b3373ffffffffffffffffffffffffffffffffffffffff168173ffffffffffffffffffffffffffffffffffffffff1603610c2e576040517f08c379a0000000000000000000000000000000000000000000000000000000008152600401610c2590613b59565b60405180910390fd5b610c3881306115b1565b610c77576040517f08c379a0000000000000000000000000000000000000000000000000000000008152600401610c6e90613beb565b60405180910390fd5b8073ffffffffffffffffffffffffffffffffffffffff166108fc349081150290604051600060405180830381858888f19350505050158015610cbd573d6000803e3d6000fd5b503073ffffffffffffffffffffffffffffffffffffffff166342842e0e8233866040518463ffffffff1660e01b8152600401610cfb93929190613c0b565b600060405180830381600087803b158015610d1557600080fd5b505af1158015610d29573d6000803e3d6000fd5b50505050610d3683611d34565b505050565b6000610d46836110b5565b8210610d87576040517f08c379a0000000000000000000000000000000000000000000000000000000008152600401610d7e90613cb4565b60405180910390fd5b600860008473ffffffffffffffffffffffffffffffffffffffff1673ffffffffffffffffffffffffffffffffffffffff168152602001908152602001600020600083815260200190815260200160002054905092915050565b610dfb8383836040518060200160405280600081525061153d565b505050565b6000610e0b82611004565b90503373ffffffffffffffffffffffffffffffffffffffff168173ffffffffffffffffffffffffffffffffffffffff1614610e7b576040517f08c379a0000000000000000000000000000000000000000000000000000000008152600401610e7290613d46565b60405180910390fd5b610e8482611e28565b610e8d82611d34565b5050565b600d6020528060005260406000206000915090505481565b6000610eb3610a93565b8210610ef4576040517f08c379a0000000000000000000000000000000000000000000000000000000008152600401610eeb90613dd8565b60405180910390fd5b600a8281548110610f0857610f07613969565b5b90600052602060002001549050919050565b60606000610f26610aa0565b90506000815167ffffffffffffffff811115610f4557610f44613468565b5b604051908082528060200260200182016040528015610f7e57816020015b610f6b612d9a565b815260200190600190039081610f635790505b50905060005b8251811015610ffb576000838281518110610fa257610fa1613969565b5b602002602001015190506040518060400160405280828152602001610fc68361159f565b815250838381518110610fdc57610fdb613969565b5b6020026020010181905250508080610ff3906139c7565b915050610f84565b50809250505090565b6000806002600084815260200190815260200160002060009054906101000a900473ffffffffffffffffffffffffffffffffffffffff169050600073ffffffffffffffffffffffffffffffffffffffff168173ffffffffffffffffffffffffffffffffffffffff16036110ac576040517f08c379a00000000000000000000000000000000000000000000000000000000081526004016110a390613e6a565b60405180910390fd5b80915050919050565b60008073ffffffffffffffffffffffffffffffffffffffff168273ffffffffffffffffffffffffffffffffffffffff1603611125576040517f08c379a000000000000000000000000000000000000000000000000000000000815260040161111c90613efc565b60405180910390fd5b600360008373ffffffffffffffffffffffffffffffffffffffff1673ffffffffffffffffffffffffffffffffffffffff168152602001908152602001600020549050919050565b61117461193a565b73ffffffffffffffffffffffffffffffffffffffff166111926112e4565b73ffffffffffffffffffffffffffffffffffffffff16146111e8576040517f08c379a00000000000000000000000000000000000000000000000000000000081526004016111df90613f68565b60405180910390fd5b6111f26000611e34565b565b600e818154811061120457600080fd5b906000526020600020016000915090505481565b600061122383611004565b90503373ffffffffffffffffffffffffffffffffffffffff168173ffffffffffffffffffffffffffffffffffffffff1614611293576040517f08c379a000000000000000000000000000000000000000000000000000000000815260040161128a90613fd4565b60405180910390fd5b61129e3060016113bd565b81600d600085815260200190815260200160002081905550600e839080600181540180825580915050600190039060005260206000200160009091909190915055505050565b6000600760009054906101000a900473ffffffffffffffffffffffffffffffffffffffff16905090565b6000600d6000838152602001908152602001600020549050919050565b60606001805461133a90613782565b80601f016020809104026020016040519081016040528092919081815260200182805461136690613782565b80156113b35780601f10611388576101008083540402835291602001916113b3565b820191906000526020600020905b81548152906001019060200180831161139657829003601f168201915b5050505050905090565b6113c561193a565b73ffffffffffffffffffffffffffffffffffffffff168273ffffffffffffffffffffffffffffffffffffffff1603611432576040517f08c379a000000000000000000000000000000000000000000000000000000000815260040161142990614040565b60405180910390fd5b806005600061143f61193a565b73ffffffffffffffffffffffffffffffffffffffff1673ffffffffffffffffffffffffffffffffffffffff16815260200190815260200160002060008473ffffffffffffffffffffffffffffffffffffffff1673ffffffffffffffffffffffffffffffffffffffff16815260200190815260200160002060006101000a81548160ff0219169083151502179055508173ffffffffffffffffffffffffffffffffffffffff166114ec61193a565b73ffffffffffffffffffffffffffffffffffffffff167f17307eab39ab6107e8899845ad3d59bd9653f200f220920489ca2b5937696c31836040516115319190612ec5565b60405180910390a35050565b61154e61154861193a565b836119fb565b61158d576040517f08c379a000000000000000000000000000000000000000000000000000000000815260040161158490613a81565b60405180910390fd5b61159984848484611efa565b50505050565b60606115aa82611f56565b9050919050565b6000600560008473ffffffffffffffffffffffffffffffffffffffff1673ffffffffffffffffffffffffffffffffffffffff16815260200190815260200160002060008373ffffffffffffffffffffffffffffffffffffffff1673ffffffffffffffffffffffffffffffffffffffff16815260200190815260200160002060009054906101000a900460ff16905092915050565b6000611651600c6120a7565b600061165d600c6120bd565b905061166984826120cb565b6116738184612298565b8091505092915050565b6060600061168a836110b5565b905060008167ffffffffffffffff8111156116a8576116a7613468565b5b6040519080825280602002602001820160405280156116e157816020015b6116ce612d9a565b8152602001906001900390816116c65790505b50905060005b828110156117525760006116fb8683610d3b565b905060006117088261159f565b905060405180604001604052808381526020018281525084848151811061173257611731613969565b5b60200260200101819052505050808061174a906139c7565b9150506116e7565b508092505050919050565b61176561193a565b73ffffffffffffffffffffffffffffffffffffffff166117836112e4565b73ffffffffffffffffffffffffffffffffffffffff16146117d9576040517f08c379a00000000000000000000000000000000000000000000000000000000081526004016117d090613f68565b60405180910390fd5b600073ffffffffffffffffffffffffffffffffffffffff168173ffffffffffffffffffffffffffffffffffffffff1603611848576040517f08c379a000000000000000000000000000000000000000000000000000000000815260040161183f906140d2565b60405180910390fd5b61185181611e34565b50565b60007f780e9d63000000000000000000000000000000000000000000000000000000007bffffffffffffffffffffffffffffffffffffffffffffffffffffffff1916827bffffffffffffffffffffffffffffffffffffffffffffffffffffffff191614806118c757506118c682612305565b5b9050919050565b60008073ffffffffffffffffffffffffffffffffffffffff166002600084815260200190815260200160002060009054906101000a900473ffffffffffffffffffffffffffffffffffffffff1673ffffffffffffffffffffffffffffffffffffffff1614159050919050565b600033905090565b816004600083815260200190815260200160002060006101000a81548173ffffffffffffffffffffffffffffffffffffffff021916908373ffffffffffffffffffffffffffffffffffffffff160217905550808273ffffffffffffffffffffffffffffffffffffffff166119b583611004565b73ffffffffffffffffffffffffffffffffffffffff167f8c5be1e5ebec7d5bd14f71427d1e84f3dd0314c0f7b2291e5b200ac8c7c3b92560405160405180910390a45050565b6000611a06826118ce565b611a45576040517f08c379a0000000000000000000000000000000000000000000000000000000008152600401611a3c90614164565b60405180910390fd5b6000611a5083611004565b90508073ffffffffffffffffffffffffffffffffffffffff168473ffffffffffffffffffffffffffffffffffffffff161480611abf57508373ffffffffffffffffffffffffffffffffffffffff16611aa784610849565b73ffffffffffffffffffffffffffffffffffffffff16145b80611ad05750611acf81856115b1565b5b91505092915050565b8273ffffffffffffffffffffffffffffffffffffffff16611af982611004565b73ffffffffffffffffffffffffffffffffffffffff1614611b4f576040517f08c379a0000000000000000000000000000000000000000000000000000000008152600401611b46906141f6565b60405180910390fd5b600073ffffffffffffffffffffffffffffffffffffffff168273ffffffffffffffffffffffffffffffffffffffff1603611bbe576040517f08c379a0000000000000000000000000000000000000000000000000000000008152600401611bb590614288565b60405180910390fd5b611bc98383836123e7565b611bd4600082611942565b6001600360008573ffffffffffffffffffffffffffffffffffffffff1673ffffffffffffffffffffffffffffffffffffffff1681526020019081526020016000206000828254611c2491906142a8565b925050819055506001600360008473ffffffffffffffffffffffffffffffffffffffff1673ffffffffffffffffffffffffffffffffffffffff1681526020019081526020016000206000828254611c7b91906142dc565b92505081905550816002600083815260200190815260200160002060006101000a81548173ffffffffffffffffffffffffffffffffffffffff021916908373ffffffffffffffffffffffffffffffffffffffff160217905550808273ffffffffffffffffffffffffffffffffffffffff168473ffffffffffffffffffffffffffffffffffffffff167fddf252ad1be2c89b69c2b068fc378daa952ba7f163c4a11628f55a4df523b3ef60405160405180910390a4505050565b6000600d60008381526020019081526020016000208190555060005b600e80549050811015611e24576000600d6000600e8481548110611d7757611d76613969565b5b906000526020600020015481526020019081526020016000205403611e1157600e6001600e80549050611daa91906142a8565b81548110611dbb57611dba613969565b5b9060005260206000200154600e8281548110611dda57611dd9613969565b5b9060005260206000200181905550600e805480611dfa57611df9614310565b5b600190038181906000526020600020016000905590555b8080611e1c906139c7565b915050611d50565b5050565b611e31816123f7565b50565b6000600760009054906101000a900473ffffffffffffffffffffffffffffffffffffffff16905081600760006101000a81548173ffffffffffffffffffffffffffffffffffffffff021916908373ffffffffffffffffffffffffffffffffffffffff1602179055508173ffffffffffffffffffffffffffffffffffffffff168173ffffffffffffffffffffffffffffffffffffffff167f8be0079c531659141344cd1fd0a4f28419497f9722a3daafe3b4186f6b6457e060405160405180910390a35050565b611f05848484611ad9565b611f118484848461244a565b611f50576040517f08c379a0000000000000000000000000000000000000000000000000000000008152600401611f47906143b1565b60405180910390fd5b50505050565b6060611f61826118ce565b611fa0576040517f08c379a0000000000000000000000000000000000000000000000000000000008152600401611f9790614443565b60405180910390fd5b6000600660008481526020019081526020016000208054611fc090613782565b80601f0160208091040260200160405190810160405280929190818152602001828054611fec90613782565b80156120395780601f1061200e57610100808354040283529160200191612039565b820191906000526020600020905b81548152906001019060200180831161201c57829003601f168201915b50505050509050600061204a6125d1565b9050600081510361205f5781925050506120a2565b60008251111561209457808260405160200161207c92919061449f565b604051602081830303815290604052925050506120a2565b61209d846125e8565b925050505b919050565b6001816000016000828254019250508190555050565b600081600001549050919050565b600073ffffffffffffffffffffffffffffffffffffffff168273ffffffffffffffffffffffffffffffffffffffff160361213a576040517f08c379a00000000000000000000000000000000000000000000000000000000081526004016121319061450f565b60405180910390fd5b612143816118ce565b15612183576040517f08c379a000000000000000000000000000000000000000000000000000000000815260040161217a9061457b565b60405180910390fd5b61218f600083836123e7565b6001600360008473ffffffffffffffffffffffffffffffffffffffff1673ffffffffffffffffffffffffffffffffffffffff16815260200190815260200160002060008282546121df91906142dc565b92505081905550816002600083815260200190815260200160002060006101000a81548173ffffffffffffffffffffffffffffffffffffffff021916908373ffffffffffffffffffffffffffffffffffffffff160217905550808273ffffffffffffffffffffffffffffffffffffffff16600073ffffffffffffffffffffffffffffffffffffffff167fddf252ad1be2c89b69c2b068fc378daa952ba7f163c4a11628f55a4df523b3ef60405160405180910390a45050565b6122a1826118ce565b6122e0576040517f08c379a00000000000000000000000000000000000000000000000000000000081526004016122d79061460d565b60405180910390fd5b8060066000848152602001908152602001600020908161230091906147d9565b505050565b60007f80ac58cd000000000000000000000000000000000000000000000000000000007bffffffffffffffffffffffffffffffffffffffffffffffffffffffff1916827bffffffffffffffffffffffffffffffffffffffffffffffffffffffff191614806123d057507f5b5e139f000000000000000000000000000000000000000000000000000000007bffffffffffffffffffffffffffffffffffffffffffffffffffffffff1916827bffffffffffffffffffffffffffffffffffffffffffffffffffffffff1916145b806123e057506123df8261268f565b5b9050919050565b6123f28383836126f9565b505050565b6124008161280b565b600060066000838152602001908152602001600020805461242090613782565b905014612447576006600082815260200190815260200160002060006124469190612db4565b5b50565b600061246b8473ffffffffffffffffffffffffffffffffffffffff1661291c565b156125c4578373ffffffffffffffffffffffffffffffffffffffff1663150b7a0261249461193a565b8786866040518563ffffffff1660e01b81526004016124b69493929190614900565b6020604051808303816000875af19250505080156124f257506040513d601f19601f820116820180604052508101906124ef9190614961565b60015b612574573d8060008114612522576040519150601f19603f3d011682016040523d82523d6000602084013e612527565b606091505b50600081510361256c576040517f08c379a0000000000000000000000000000000000000000000000000000000008152600401612563906143b1565b60405180910390fd5b805181602001fd5b63150b7a0260e01b7bffffffffffffffffffffffffffffffffffffffffffffffffffffffff1916817bffffffffffffffffffffffffffffffffffffffffffffffffffffffff1916149150506125c9565b600190505b949350505050565b606060405180602001604052806000815250905090565b60606125f3826118ce565b612632576040517f08c379a000000000000000000000000000000000000000000000000000000000815260040161262990614a00565b60405180910390fd5b600061263c6125d1565b9050600081511161265c5760405180602001604052806000815250612687565b806126668461292f565b60405160200161267792919061449f565b6040516020818303038152906040525b915050919050565b60007f01ffc9a7000000000000000000000000000000000000000000000000000000007bffffffffffffffffffffffffffffffffffffffffffffffffffffffff1916827bffffffffffffffffffffffffffffffffffffffffffffffffffffffff1916149050919050565b612704838383612a8f565b600073ffffffffffffffffffffffffffffffffffffffff168373ffffffffffffffffffffffffffffffffffffffff16036127465761274181612a94565b612785565b8173ffffffffffffffffffffffffffffffffffffffff168373ffffffffffffffffffffffffffffffffffffffff1614612784576127838382612add565b5b5b600073ffffffffffffffffffffffffffffffffffffffff168273ffffffffffffffffffffffffffffffffffffffff16036127c7576127c281612c4a565b612806565b8273ffffffffffffffffffffffffffffffffffffffff168273ffffffffffffffffffffffffffffffffffffffff1614612805576128048282612d1b565b5b5b505050565b600061281682611004565b9050612824816000846123e7565b61282f600083611942565b6001600360008373ffffffffffffffffffffffffffffffffffffffff1673ffffffffffffffffffffffffffffffffffffffff168152602001908152602001600020600082825461287f91906142a8565b925050819055506002600083815260200190815260200160002060006101000a81549073ffffffffffffffffffffffffffffffffffffffff021916905581600073ffffffffffffffffffffffffffffffffffffffff168273ffffffffffffffffffffffffffffffffffffffff167fddf252ad1be2c89b69c2b068fc378daa952ba7f163c4a11628f55a4df523b3ef60405160405180910390a45050565b600080823b905060008111915050919050565b606060008203612976576040518060400160405280600181526020017f30000000000000000000000000000000000000000000000000000000000000008152509050612a8a565b600082905060005b600082146129a8578080612991906139c7565b915050600a826129a19190614a4f565b915061297e565b60008167ffffffffffffffff8111156129c4576129c3613468565b5b6040519080825280601f01601f1916602001820160405280156129f65781602001600182028036833780820191505090505b5090505b60008514612a8357600182612a0f91906142a8565b9150600a85612a1e9190614a80565b6030612a2a91906142dc565b60f81b818381518110612a4057612a3f613969565b5b60200101907effffffffffffffffffffffffffffffffffffffffffffffffffffffffffffff1916908160001a905350600a85612a7c9190614a4f565b94506129fa565b8093505050505b919050565b505050565b600a80549050600b600083815260200190815260200160002081905550600a81908060018154018082558091505060019003906000526020600020016000909190919091505550565b60006001612aea846110b5565b612af491906142a8565b9050600060096000848152602001908152602001600020549050818114612bd9576000600860008673ffffffffffffffffffffffffffffffffffffffff1673ffffffffffffffffffffffffffffffffffffffff168152602001908152602001600020600084815260200190815260200160002054905080600860008773ffffffffffffffffffffffffffffffffffffffff1673ffffffffffffffffffffffffffffffffffffffff168152602001908152602001600020600084815260200190815260200160002081905550816009600083815260200190815260200160002081905550505b6009600084815260200190815260200160002060009055600860008573ffffffffffffffffffffffffffffffffffffffff1673ffffffffffffffffffffffffffffffffffffffff16815260200190815260200160002060008381526020019081526020016000206000905550505050565b60006001600a80549050612c5e91906142a8565b90506000600b60008481526020019081526020016000205490506000600a8381548110612c8e57612c8d613969565b5b9060005260206000200154905080600a8381548110612cb057612caf613969565b5b906000526020600020018190555081600b600083815260200190815260200160002081905550600b600085815260200190815260200160002060009055600a805480612cff57612cfe614310565b5b6001900381819060005260206000200160009055905550505050565b6000612d26836110b5565b905081600860008573ffffffffffffffffffffffffffffffffffffffff1673ffffffffffffffffffffffffffffffffffffffff168152602001908152602001600020600083815260200190815260200160002081905550806009600084815260200190815260200160002081905550505050565b604051806040016040528060008152602001606081525090565b508054612dc090613782565b6000825580601f10612dd25750612df1565b601f016020900490600052602060002090810190612df09190612df4565b5b50565b5b80821115612e0d576000816000905550600101612df5565b5090565b6000604051905090565b600080fd5b600080fd5b60007fffffffff0000000000000000000000000000000000000000000000000000000082169050919050565b612e5a81612e25565b8114612e6557600080fd5b50565b600081359050612e7781612e51565b92915050565b600060208284031215612e9357612e92612e1b565b5b6000612ea184828501612e68565b91505092915050565b60008115159050919050565b612ebf81612eaa565b82525050565b6000602082019050612eda6000830184612eb6565b92915050565b600081519050919050565b600082825260208201905092915050565b60005b83811015612f1a578082015181840152602081019050612eff565b60008484015250505050565b6000601f19601f8301169050919050565b6000612f4282612ee0565b612f4c8185612eeb565b9350612f5c818560208601612efc565b612f6581612f26565b840191505092915050565b60006020820190508181036000830152612f8a8184612f37565b905092915050565b6000819050919050565b612fa581612f92565b8114612fb057600080fd5b50565b600081359050612fc281612f9c565b92915050565b600060208284031215612fde57612fdd612e1b565b5b6000612fec84828501612fb3565b91505092915050565b600073ffffffffffffffffffffffffffffffffffffffff82169050919050565b600061302082612ff5565b9050919050565b61303081613015565b82525050565b600060208201905061304b6000830184613027565b92915050565b61305a81613015565b811461306557600080fd5b50565b60008135905061307781613051565b92915050565b6000806040838503121561309457613093612e1b565b5b60006130a285828601613068565b92505060206130b385828601612fb3565b9150509250929050565b6000602082840312156130d3576130d2612e1b565b5b60006130e184828501613068565b91505092915050565b600081519050919050565b600082825260208201905092915050565b6000819050602082019050919050565b61311f81612f92565b82525050565b60006131318383613116565b60208301905092915050565b6000602082019050919050565b6000613155826130ea565b61315f81856130f5565b935061316a83613106565b8060005b8381101561319b5781516131828882613125565b975061318d8361313d565b92505060018101905061316e565b5085935050505092915050565b600060208201905081810360008301526131c2818461314a565b905092915050565b6131d381612f92565b82525050565b60006020820190506131ee60008301846131ca565b92915050565b60008060006060848603121561320d5761320c612e1b565b5b600061321b86828701613068565b935050602061322c86828701613068565b925050604061323d86828701612fb3565b9150509250925092565b600081519050919050565b600082825260208201905092915050565b6000819050602082019050919050565b600082825260208201905092915050565b600061328f82612ee0565b6132998185613273565b93506132a9818560208601612efc565b6132b281612f26565b840191505092915050565b60006040830160008301516132d56000860182613116565b50602083015184820360208601526132ed8282613284565b9150508091505092915050565b600061330683836132bd565b905092915050565b6000602082019050919050565b600061332682613247565b6133308185613252565b93508360208202850161334285613263565b8060005b8581101561337e578484038952815161335f85826132fa565b945061336a8361330e565b925060208a01995050600181019050613346565b50829750879550505050505092915050565b600060208201905081810360008301526133aa818461331b565b905092915050565b600080604083850312156133c9576133c8612e1b565b5b60006133d785828601612fb3565b92505060206133e885828601612fb3565b9150509250929050565b6133fb81612eaa565b811461340657600080fd5b50565b600081359050613418816133f2565b92915050565b6000806040838503121561343557613434612e1b565b5b600061344385828601613068565b925050602061345485828601613409565b9150509250929050565b600080fd5b600080fd5b7f4e487b7100000000000000000000000000000000000000000000000000000000600052604160045260246000fd5b6134a082612f26565b810181811067ffffffffffffffff821117156134bf576134be613468565b5b80604052505050565b60006134d2612e11565b90506134de8282613497565b919050565b600067ffffffffffffffff8211156134fe576134fd613468565b5b61350782612f26565b9050602081019050919050565b82818337600083830152505050565b6000613536613531846134e3565b6134c8565b90508281526020810184848401111561355257613551613463565b5b61355d848285613514565b509392505050565b600082601f83011261357a5761357961345e565b5b813561358a848260208601613523565b91505092915050565b600080600080608085870312156135ad576135ac612e1b565b5b60006135bb87828801613068565b94505060206135cc87828801613068565b93505060406135dd87828801612fb3565b925050606085013567ffffffffffffffff8111156135fe576135fd612e20565b5b61360a87828801613565565b91505092959194509250565b6000806040838503121561362d5761362c612e1b565b5b600061363b85828601613068565b925050602061364c85828601613068565b9150509250929050565b600067ffffffffffffffff82111561367157613670613468565b5b61367a82612f26565b9050602081019050919050565b600061369a61369584613656565b6134c8565b9050828152602081018484840111156136b6576136b5613463565b5b6136c1848285613514565b509392505050565b600082601f8301126136de576136dd61345e565b5b81356136ee848260208601613687565b91505092915050565b6000806040838503121561370e5761370d612e1b565b5b600061371c85828601613068565b925050602083013567ffffffffffffffff81111561373d5761373c612e20565b5b613749858286016136c9565b9150509250929050565b7f4e487b7100000000000000000000000000000000000000000000000000000000600052602260045260246000fd5b6000600282049050600182168061379a57607f821691505b6020821081036137ad576137ac613753565b5b50919050565b7f4552433732313a20617070726f76656420717565727920666f72206e6f6e657860008201527f697374656e7420746f6b656e0000000000000000000000000000000000000000602082015250565b600061380f602c83612eeb565b915061381a826137b3565b604082019050919050565b6000602082019050818103600083015261383e81613802565b9050919050565b7f4552433732313a20617070726f76616c20746f2063757272656e74206f776e6560008201527f7200000000000000000000000000000000000000000000000000000000000000602082015250565b60006138a1602183612eeb565b91506138ac82613845565b604082019050919050565b600060208201905081810360008301526138d081613894565b9050919050565b7f4552433732313a20617070726f76652063616c6c6572206973206e6f74206f7760008201527f6e6572206e6f7220617070726f76656420666f7220616c6c0000000000000000602082015250565b6000613933603883612eeb565b915061393e826138d7565b604082019050919050565b6000602082019050818103600083015261396281613926565b9050919050565b7f4e487b7100000000000000000000000000000000000000000000000000000000600052603260045260246000fd5b7f4e487b7100000000000000000000000000000000000000000000000000000000600052601160045260246000fd5b60006139d282612f92565b91507fffffffffffffffffffffffffffffffffffffffffffffffffffffffffffffffff8203613a0457613a03613998565b5b600182019050919050565b7f4552433732313a207472616e736665722063616c6c6572206973206e6f74206f60008201527f776e6572206e6f7220617070726f766564000000000000000000000000000000602082015250565b6000613a6b603183612eeb565b9150613a7682613a0f565b604082019050919050565b60006020820190508181036000830152613a9a81613a5e565b9050919050565b7f6e667420746f6b656e206e6f742073616c652e00000000000000000000000000600082015250565b6000613ad7601383612eeb565b9150613ae282613aa1565b602082019050919050565b60006020820190508181036000830152613b0681613aca565b9050919050565b7f63616c6c6572206973206e667420746f6b656e206f776e65722e000000000000600082015250565b6000613b43601a83612eeb565b9150613b4e82613b0d565b602082019050919050565b60006020820190508181036000830152613b7281613b36565b9050919050565b7f6e667420746f6b656e206f776e657220646964206e6f7420617070726f76652060008201527f746f6b656e2e0000000000000000000000000000000000000000000000000000602082015250565b6000613bd5602683612eeb565b9150613be082613b79565b604082019050919050565b60006020820190508181036000830152613c0481613bc8565b9050919050565b6000606082019050613c206000830186613027565b613c2d6020830185613027565b613c3a60408301846131ca565b949350505050565b7f455243373231456e756d657261626c653a206f776e657220696e646578206f7560008201527f74206f6620626f756e6473000000000000000000000000000000000000000000602082015250565b6000613c9e602b83612eeb565b9150613ca982613c42565b604082019050919050565b60006020820190508181036000830152613ccd81613c91565b9050919050565b7f6d73672e73656e646572206973206e6f7420746865206f776e6572206f66207460008201527f686520746f6b656e000000000000000000000000000000000000000000000000602082015250565b6000613d30602883612eeb565b9150613d3b82613cd4565b604082019050919050565b60006020820190508181036000830152613d5f81613d23565b9050919050565b7f455243373231456e756d657261626c653a20676c6f62616c20696e646578206f60008201527f7574206f6620626f756e64730000000000000000000000000000000000000000602082015250565b6000613dc2602c83612eeb565b9150613dcd82613d66565b604082019050919050565b60006020820190508181036000830152613df181613db5565b9050919050565b7f4552433732313a206f776e657220717565727920666f72206e6f6e657869737460008201527f656e7420746f6b656e0000000000000000000000000000000000000000000000602082015250565b6000613e54602983612eeb565b9150613e5f82613df8565b604082019050919050565b60006020820190508181036000830152613e8381613e47565b9050919050565b7f4552433732313a2062616c616e636520717565727920666f7220746865207a6560008201527f726f206164647265737300000000000000000000000000000000000000000000602082015250565b6000613ee6602a83612eeb565b9150613ef182613e8a565b604082019050919050565b60006020820190508181036000830152613f1581613ed9565b9050919050565b7f4f776e61626c653a2063616c6c6572206973206e6f7420746865206f776e6572600082015250565b6000613f52602083612eeb565b9150613f5d82613f1c565b602082019050919050565b60006020820190508181036000830152613f8181613f45565b9050919050565b7f43616c6c6572206973206e6f74206e667420746f6b656e206f776e65722e0000600082015250565b6000613fbe601e83612eeb565b9150613fc982613f88565b602082019050919050565b60006020820190508181036000830152613fed81613fb1565b9050919050565b7f4552433732313a20617070726f766520746f2063616c6c657200000000000000600082015250565b600061402a601983612eeb565b915061403582613ff4565b602082019050919050565b600060208201905081810360008301526140598161401d565b9050919050565b7f4f776e61626c653a206e6577206f776e657220697320746865207a65726f206160008201527f6464726573730000000000000000000000000000000000000000000000000000602082015250565b60006140bc602683612eeb565b91506140c782614060565b604082019050919050565b600060208201905081810360008301526140eb816140af565b9050919050565b7f4552433732313a206f70657261746f7220717565727920666f72206e6f6e657860008201527f697374656e7420746f6b656e0000000000000000000000000000000000000000602082015250565b600061414e602c83612eeb565b9150614159826140f2565b604082019050919050565b6000602082019050818103600083015261417d81614141565b9050919050565b7f4552433732313a207472616e73666572206f6620746f6b656e2074686174206960008201527f73206e6f74206f776e0000000000000000000000000000000000000000000000602082015250565b60006141e0602983612eeb565b91506141eb82614184565b604082019050919050565b6000602082019050818103600083015261420f816141d3565b9050919050565b7f4552433732313a207472616e7366657220746f20746865207a65726f2061646460008201527f7265737300000000000000000000000000000000000000000000000000000000602082015250565b6000614272602483612eeb565b915061427d82614216565b604082019050919050565b600060208201905081810360008301526142a181614265565b9050919050565b60006142b382612f92565b91506142be83612f92565b92508282039050818111156142d6576142d5613998565b5b92915050565b60006142e782612f92565b91506142f283612f92565b925082820190508082111561430a57614309613998565b5b92915050565b7f4e487b7100000000000000000000000000000000000000000000000000000000600052603160045260246000fd5b7f4552433732313a207472616e7366657220746f206e6f6e20455243373231526560008201527f63656976657220696d706c656d656e7465720000000000000000000000000000602082015250565b600061439b603283612eeb565b91506143a68261433f565b604082019050919050565b600060208201905081810360008301526143ca8161438e565b9050919050565b7f45524337323155524953746f726167653a2055524920717565727920666f722060008201527f6e6f6e6578697374656e7420746f6b656e000000000000000000000000000000602082015250565b600061442d603183612eeb565b9150614438826143d1565b604082019050919050565b6000602082019050818103600083015261445c81614420565b9050919050565b600081905092915050565b600061447982612ee0565b6144838185614463565b9350614493818560208601612efc565b80840191505092915050565b60006144ab828561446e565b91506144b7828461446e565b91508190509392505050565b7f4552433732313a206d696e7420746f20746865207a65726f2061646472657373600082015250565b60006144f9602083612eeb565b9150614504826144c3565b602082019050919050565b60006020820190508181036000830152614528816144ec565b9050919050565b7f4552433732313a20746f6b656e20616c7265616479206d696e74656400000000600082015250565b6000614565601c83612eeb565b91506145708261452f565b602082019050919050565b6000602082019050818103600083015261459481614558565b9050919050565b7f45524337323155524953746f726167653a2055524920736574206f66206e6f6e60008201527f6578697374656e7420746f6b656e000000000000000000000000000000000000602082015250565b60006145f7602e83612eeb565b91506146028261459b565b604082019050919050565b60006020820190508181036000830152614626816145ea565b9050919050565b60008190508160005260206000209050919050565b60006020601f8301049050919050565b600082821b905092915050565b60006008830261468f7fffffffffffffffffffffffffffffffffffffffffffffffffffffffffffffffff82614652565b6146998683614652565b95508019841693508086168417925050509392505050565b6000819050919050565b60006146d66146d16146cc84612f92565b6146b1565b612f92565b9050919050565b6000819050919050565b6146f0836146bb565b6147046146fc826146dd565b84845461465f565b825550505050565b600090565b61471961470c565b6147248184846146e7565b505050565b5b818110156147485761473d600082614711565b60018101905061472a565b5050565b601f82111561478d5761475e8161462d565b61476784614642565b81016020851015614776578190505b61478a61478285614642565b830182614729565b50505b505050565b600082821c905092915050565b60006147b060001984600802614792565b1980831691505092915050565b60006147c9838361479f565b9150826002028217905092915050565b6147e282612ee0565b67ffffffffffffffff8111156147fb576147fa613468565b5b6148058254613782565b61481082828561474c565b600060209050601f8311600181146148435760008415614831578287015190505b61483b85826147bd565b8655506148a3565b601f1984166148518661462d565b60005b8281101561487957848901518255600182019150602085019450602081019050614854565b868310156148965784890151614892601f89168261479f565b8355505b6001600288020188555050505b505050505050565b600081519050919050565b600082825260208201905092915050565b60006148d2826148ab565b6148dc81856148b6565b93506148ec818560208601612efc565b6148f581612f26565b840191505092915050565b60006080820190506149156000830187613027565b6149226020830186613027565b61492f60408301856131ca565b818103606083015261494181846148c7565b905095945050505050565b60008151905061495b81612e51565b92915050565b60006020828403121561497757614976612e1b565b5b60006149858482850161494c565b91505092915050565b7f4552433732314d657461646174613a2055524920717565727920666f72206e6f60008201527f6e6578697374656e7420746f6b656e0000000000000000000000000000000000602082015250565b60006149ea602f83612eeb565b91506149f58261498e565b604082019050919050565b60006020820190508181036000830152614a19816149dd565b9050919050565b7f4e487b7100000000000000000000000000000000000000000000000000000000600052601260045260246000fd5b6000614a5a82612f92565b9150614a6583612f92565b925082614a7557614a74614a20565b5b828204905092915050565b6000614a8b82612f92565b9150614a9683612f92565b925082614aa657614aa5614a20565b5b82820690509291505056fea26469706673582212202c36cbd2647ad9631af5761ffa1f5b70304b15625b68026654ec9d547e61f67064736f6c63430008100033",
  "immutableReferences": {},
  "source": "// SPDX-License-Identifier: MIT\npragma solidity ^0.8.7;\n\nimport \"@openzeppelin/contracts/token/ERC721/ERC721.sol\";\nimport \"@openzeppelin/contracts/utils/Counters.sol\";\nimport \"@openzeppelin/contracts/access/Ownable.sol\";\nimport \"@openzeppelin/contracts/token/ERC721/extensions/ERC721URIStorage.sol\";\nimport \"@openzeppelin/contracts/token/ERC721/extensions/ERC721Enumerable.sol\";\n\ncontract nftExchange is ERC721URIStorage, Ownable, ERC721Enumerable {\n  using Counters for Counters.Counter;\n  Counters.Counter private _tokenIds;\n\n  constructor() public ERC721(\"yoonNFT\", \"YNFT\") {}\n\n  function _beforeTokenTransfer(\n    address from,\n    address to,\n    uint256 tokenId\n  ) internal override(ERC721, ERC721Enumerable) {\n    super._beforeTokenTransfer(from, to, tokenId);\n  }\n\n  function _burn(uint256 tokenId) internal override(ERC721, ERC721URIStorage) {\n    super._burn(tokenId);\n  }\n\n  function supportsInterface(bytes4 interfaceId)\n    public\n    view\n    override(ERC721, ERC721Enumerable)\n    returns (bool)\n  {\n    return super.supportsInterface(interfaceId);\n  }\n\n  function tokenURI(uint256 tokenId)\n    public\n    view\n    override(ERC721, ERC721URIStorage)\n    returns (string memory)\n  {\n    return super.tokenURI(tokenId);\n  }\n\n  function mintNFT(address recipient, string memory tokenURI)\n    public\n    returns (uint256)\n  {\n    _tokenIds.increment();\n\n    uint256 newItemId = _tokenIds.current();\n    _mint(recipient, newItemId);\n    _setTokenURI(newItemId, tokenURI);\n    return newItemId;\n  }\n\n  function listUserNFTs(address owner)\n    external\n    view\n    returns (uint256[] memory)\n  {\n    uint256 balance = balanceOf(owner);\n    uint256[] memory tokens = new uint256[](balance);\n    for (uint256 i = 0; i < balance; i++) {\n      tokens[i] = (tokenOfOwnerByIndex(owner, i));\n    }\n\n    return tokens;\n  }\n\n  struct NftTokenData {\n    uint256 nftTokenId;\n    string nftTokenURI;\n    //uint price ;\n  }\n\n  function getNftTokens(address _nftTokenOwner)\n    public\n    view\n    returns (NftTokenData[] memory)\n  {\n    uint256 balanceLength = balanceOf(_nftTokenOwner);\n    NftTokenData[] memory nftTokenData = new NftTokenData[](balanceLength);\n    for (uint256 i = 0; i < balanceLength; i++) {\n      uint256 nftTokenId = tokenOfOwnerByIndex(_nftTokenOwner, i);\n      string memory nftTokenURI = tokenURI(nftTokenId);\n      nftTokenData[i] = NftTokenData(nftTokenId, nftTokenURI);\n      // uint tokenPrice = getNftTokenPrice(nftTokenId);\n      // nftTokenData[i] = NftTokenData(nftTokenId , nftTokenURI, tokenPrice );\n    }\n\n    return nftTokenData;\n  }\n\n  mapping(uint256 => uint256) public nftTokenPrices;\n  uint256[] public onSaleNftTokenArray;\n\n  function addToMarket(uint256 _tokenId, uint256 _price) public {\n    address nftTokenOwner = ownerOf(_tokenId);\n    require(nftTokenOwner == msg.sender, \"Caller is not nft token owner.\");\n    setApprovalForAll(address(this), true);\n\n    nftTokenPrices[_tokenId] = _price;\n    onSaleNftTokenArray.push(_tokenId); // nft list\n  }\n\n  function getMarketList() public view returns (NftTokenData[] memory) {\n    uint256[] memory onSaleNftToken = getSaleNftToken();\n    NftTokenData[] memory onSaleNftTokens = new NftTokenData[](\n      onSaleNftToken.length\n    );\n\n    for (uint256 i = 0; i < onSaleNftToken.length; i++) {\n      uint256 tokenId = onSaleNftToken[i];\n      //uint256 tokenPrice = getNftTokenPrice(tokenId);\n      onSaleNftTokens[i] = NftTokenData(tokenId, tokenURI(tokenId));\n    }\n\n    return onSaleNftTokens;\n  }\n\n  function getSaleNftToken() public view returns (uint256[] memory) {\n    return onSaleNftTokenArray;\n  }\n\n  function getNftTokenPrice(uint256 _tokenId) public view returns (uint256) {\n    return nftTokenPrices[_tokenId];\n  }\n\n  function buyNft(uint256 _tokenId) public payable {\n    uint256 price = nftTokenPrices[_tokenId];\n    address nftTokenOwner = ownerOf(_tokenId);\n    require(price > 0, \"nft token not sale.\");\n    require(nftTokenOwner != msg.sender, \"caller is nft token owner.\");\n    require(\n      isApprovedForAll(nftTokenOwner, address(this)),\n      \"nft token owner did not approve token.\"\n    );\n    payable(nftTokenOwner).transfer(msg.value);\n    IERC721(address(this)).safeTransferFrom(\n      nftTokenOwner,\n      msg.sender,\n      _tokenId\n    );\n    removeToken(_tokenId);\n  }\n\n  function burn(uint256 _tokenId) public {\n    address addr_owner = ownerOf(_tokenId);\n    require(\n      addr_owner == msg.sender,\n      \"msg.sender is not the owner of the token\"\n    );\n    _burn(_tokenId);\n    removeToken(_tokenId);\n  }\n\n  function removeToken(uint256 _tokenId) private {\n    nftTokenPrices[_tokenId] = 0;\n    for (uint256 i = 0; i < onSaleNftTokenArray.length; i++) {\n      if (nftTokenPrices[onSaleNftTokenArray[i]] == 0) {\n        onSaleNftTokenArray[i] = onSaleNftTokenArray[\n          onSaleNftTokenArray.length - 1\n        ];\n        onSaleNftTokenArray.pop();\n      }\n    }\n  }\n}\n",
  "sourcePath": "/Users/1004752/IdeaProjects/nft-marketplace/src/contracts/nftExchange.sol",
  "compiler": {
    "name": "solc",
    "version": "0.8.16+commit.07a7930e.Emscripten.clang"
  },
  "schemaVersion": "3.4.9",
  "updatedAt": "2022-08-26T01:23:10.051Z",
  "devdoc": {
    "kind": "dev",
    "methods": {
      "approve(address,uint256)": {
        "details": "See {IERC721-approve}."
      },
      "balanceOf(address)": {
        "details": "See {IERC721-balanceOf}."
      },
      "getApproved(uint256)": {
        "details": "See {IERC721-getApproved}."
      },
      "isApprovedForAll(address,address)": {
        "details": "See {IERC721-isApprovedForAll}."
      },
      "name()": {
        "details": "See {IERC721Metadata-name}."
      },
      "owner()": {
        "details": "Returns the address of the current owner."
      },
      "ownerOf(uint256)": {
        "details": "See {IERC721-ownerOf}."
      },
      "renounceOwnership()": {
        "details": "Leaves the contract without owner. It will not be possible to call `onlyOwner` functions anymore. Can only be called by the current owner. NOTE: Renouncing ownership will leave the contract without an owner, thereby removing any functionality that is only available to the owner."
      },
      "safeTransferFrom(address,address,uint256)": {
        "details": "See {IERC721-safeTransferFrom}."
      },
      "safeTransferFrom(address,address,uint256,bytes)": {
        "details": "See {IERC721-safeTransferFrom}."
      },
      "setApprovalForAll(address,bool)": {
        "details": "See {IERC721-setApprovalForAll}."
      },
      "symbol()": {
        "details": "See {IERC721Metadata-symbol}."
      },
      "tokenByIndex(uint256)": {
        "details": "See {IERC721Enumerable-tokenByIndex}."
      },
      "tokenOfOwnerByIndex(address,uint256)": {
        "details": "See {IERC721Enumerable-tokenOfOwnerByIndex}."
      },
      "totalSupply()": {
        "details": "See {IERC721Enumerable-totalSupply}."
      },
      "transferFrom(address,address,uint256)": {
        "details": "See {IERC721-transferFrom}."
      },
      "transferOwnership(address)": {
        "details": "Transfers ownership of the contract to a new account (`newOwner`). Can only be called by the current owner."
      }
    },
    "version": 1
  },
  "userdoc": {
    "kind": "user",
    "methods": {},
    "version": 1
  }
}